:020000040800F2
:100000000000022041100008911000089110000823
:1000100091100008911000089110000800000000E5
:100020000000000000000000000000009110000827
:10003000911000080000000091100008E30F000874
:10004000911000089110000891100008911000080C
:1000500091100008911000089110000891100008FC
:1000600091100008911000089110000891100008EC
:1000700091100008911000089110000891100008DC
:100080009110000891100008911000080000000075
:1000900000000000000000000000000091100008B7
:1000A0007D1B0008F51A0008911B0008191B0008A9
:1000B0002D1B0008411B0008551B0008911000086B
:1000C000911000089110000891100008911000088C
:1000D00091100008452400085D240008000000007D
:1000E0009110000891100008911000080000000015
:1000F0000000000000000000000000009110000857
:100100000000000091100008691B00089110000811
:1001100000000000000000000000000000000000DF
:10012000911000089110000891100008911000082B
:100130009110000800000000000000000000000016
:100140000000000000000000000000009110000806
:1001500091100008911000089110000879240008FF
:10016000911000089110000800000000000000003D
:10017000000000000000000000000000000000007F
:1001800000000000911000080000000000000000C6
:08019000911000089110000815
:10019800034613F8012B002AFBD1181A01387047BF
:1001A80053B94AB9002908BF00281CBF4FF0FF31D6
:1001B8004FF0FF3000F00CB8ADF1080C6DE904CE3B
:1001C80002F09EFDDDF804E0DDE9022304B070478B
:1001D800704700BF10B5054C237833B9044B13B1F1
:1001E8000448AFF300800123237010BD8000002075
:1001F80000000000CC2F000808B5034B1BB10349D1
:100208000348AFF3008008BD000000008400002010
:10021800CC2F000813B50121CF2000F05FFF022387
:10022800009300231A461946184600F04BF9124964
:10023800124C002000F038F91149002000F05CFB56
:100248001049002000F058FB0F49002000F054FB33
:100258000E4B0F492246002000F04EFB0D490020AE
:1002680000F022F922460C49002000F045FB0B4B18
:1002780000221A6002B010BDE42F000865300008A3
:10028800053000081C300008393000085C300008D0
:100298007130000880300008A33000089C0000205E
:1002A80013B50121CF2000F077FF4FF4FA7000F06A
:1002B800ADFF124C0021CF2000F06EFF4FF4FA7012
:1002C80000F0A4FF23680133236000F09DFF23683A
:1002D8000B490246002000F00FFB20680A2390FB20
:1002E800F3F203FB120030B9064922682368009133
:1002F800054900F001FB02B010BD00BF9C000020C2
:10030800B530000807310008D33000080369C26817
:1003180093429CBF81685B18013B981A70472DE98E
:10032800F041D0E902840546A8EB040640689642ED
:1003380020440F46144406D902F014FCBFF35F8F23
:10034800EC60BDE8F0813246A4EB080402F00AFC38
:1003580068682246B919EFE72DE9F843C5680646EB
:10036800894617464FF000083369B46870689D42A3
:1003780028BF1B19641BBC4203F1FF3328BF3C464E
:100388005B1B9C4228BF1C4649462246284402F073
:10039800E9FBB3682544A044A1443F1BAB4208BF16
:1003A8000025BFF35F8FF560002FDDD14046BDE823
:1003B800F883000008B5144BA8220021184602F063
:1003C80093FB0322026111494261114A8161C261B2
:1003D8004FF480620262002282624262C262016657
:1003E8000C4941661021816603460267C26642676E
:1003F800BFF35F8F084911F8010D98540132102A94
:10040800F9D1BFF35F8F08BDB00400201431000894
:10041800B0000020A00000202D310008F8B5144BD2
:10042800182700FB07751D4407FB00330E46DB6ADF
:10043800012B14460AD0022B14D023B92846FFF703
:1004480065FF844208D900242046F8BD2846FFF7F6
:100458005DFF844228BF0446224631462846FFF7FE
:100468005EFFF1E72846BDE8F840FFF775BF00BF1B
:10047800B0040020F8B50B4B1B78532B04460D46EF
:10048800164601D0FFF796FFEFF311874FF02001D2
:1004980081F31188324629462046FFF7BFFF87F3CC
:1004A8001188F8BDB004002038B5054608460C464A
:1004B800FFF76EFE214602462846BDE83840FFF7A2
:1004C800D9BF00002DE9F041164C1E462378532B66
:1004D80005468846174601D0FFF76CFF022D1DD848
:1004E800EFF3118C4FF0200181F3118865B11820CA
:1004F80005FB0003E21844F80380576000FB05423F
:100508000023166293625362182303FB0544069B7B
:10051800E3628CF311880020BDE8F0814FF0FF30D2
:10052800FAE700BFB0040020826810B504464068AE
:10053800531C834205D820688154A360E3680133C3
:10054800E360D4E901329A420BD121682069FFF7B0
:1005580091FFA368984215BF4FF0FF330023E36073
:10056800A36010BD2DE9F84F9946DDE90A43164608
:10057800054688460A464FF0010AB24212D2CA45D9
:1005880038BFCA4613F0010B01D184B90024EB68C7
:10059800002B3DDB0127B9F1010F1FD909F1FF3904
:1005A8007743F8E70AF1010AB2FBF6F2E5E79B07A1
:1005B80012D5B9F1000F14BF202730275445E6D9CA
:1005C80039462846FFF7B0FFEB68002B04F1FF34EB
:1005D800DDDB002CF2D1D9E72027EFE7B8FBF7F3F2
:1005E8009E42DDD9DFF84890B8FBF7F3284619F8A2
:1005F800031007FB1388FFF797FFEB68002B03DB5B
:10060800B7FBF6F3B74205D2BBF1000F00D064B9CF
:10061800BDE8F88F1F46E7E720212846FFF784FF4B
:10062800EB68002B04F1FF34F2DB5445F4D8EFE714
:10063800353100082DE9F04F00239BB00D464021CD
:10064800CDE90613CDE908300DF1280A03901646C6
:10065800CDF814A015F8011B39B9089D002D00F339
:100668003E8108981BB0BDE8F08F252940F0BB807B
:100678004FF0000907E0302B0FD149F0020901E0E3
:1006880049F001090D46294611F8013B2D2BF7D0F9
:10069800F1D8232B13D02B2B0ED00024294611F888
:1006A800013BA3F1300009280CD80A2202FB0433CD
:1006B800A3F130040D46F1E749F00409E2E749F0F7
:1006C8000809DFE72E2B37D16B782A2B1FD1336827
:1006D800191DD3F800B0316002350127284610F8FB
:1006E800011B01F0FB0CBCF1680F0546F7D0782917
:1006F80009D86F2924D8632971D039D8252972D00F
:10070800582900F0C280089B002BA3DAA5E74FF018
:10071800000B0D465F464FF00A0C284610F8011BE7
:10072800A1F1300EBEF1090FD8D80CFB0B11A1F1C5
:10073800300B05460127F0E74FF0000B5F46CDE789
:1007480070390829DFD801A050F821F0D70800082F
:100758000F0700080F070008A30800080F07000884
:10076800810800080F0700080F0700089308000811
:100778006429C8D131680F68081D87EAE7713060BD
:10078800A1EBE7714FF001080A2009292FDCD845B1
:1007980038BFD84684BB002408990029B3DB002F52
:1007A80039DA7F422D2105A8FFF7BEFE08990029F6
:1007B800A9DB09F00301022905D1BBF1000F02D121
:1007C800002C4DD10024089900299CDBCDE9004973
:1007D8005B460A22394605A8FFF7C4FE93E733684B
:1007E8001A1D1978326005A8FFF79EFE8BE708F1FD
:1007F8000108B1FBF0F1C8E7002F09F0020124DB82
:1008080019F0040F21D1E1B1BBF1000F08D108990B
:100818000029FFF678AF19F0040FCAD02B21C2E7E0
:1008280019F0010FB8D1002CB5D0A045B4D22021C1
:1008380005A8FFF779FE0899002904F1FF34F2DAD8
:10084800AAE719F0010FEED0E1E7013C11B1BBF1C5
:10085800000FA1D019F0010F9ED1002CE3D19AE727
:100868004445B0D9302105A8FFF75EFE0899002954
:1008780004F1FF34A4DAA6E73168081D3060CDE939
:1008880000495B460A220968A5E73168081D3060FF
:10089800CDE900495B461022F5E73268111D316049
:1008A80014680CB9134C002714F8011B00293FF4F5
:1008B8002AAF1FB1BBF1000F3FF425AF05A8FFF722
:1008C80033FE089A002A0BF1FF3BEDDA1BE731688B
:1008D8000B1D336000220823CDE90032DBE7079CBB
:1008E80024B1039822465146FFF7C4FD2C440894CE
:1008F800B7E600BF2E3100080EB403B503AB01AA5A
:1009080053F8041B0193FFF795FE02B05DF804EB62
:1009180003B0704710B594B0102200210AA802F065
:10092800E3F81422002103A802F0DEF81D4B002191
:1009380001911A6C42F080521A641B6C03F08053C8
:100948000193019B184B02911A6842F440421A60C5
:100958001B6803F4404302930122029B4FF4A02337
:10096800CDE9082302244FF48003CDE90E43642225
:10097800042308A8CDE91032CDE9124300F0B4F8F9
:1009880000B1FEE70F23CDE903344FF48053CDE9DE
:1009980006300590032103A800F082FA00B1FEE7B3
:1009A80014B010BD003802400070004008B50320A4
:1009B80000F00EF8BDE8084000F044BC08B5AFF3FD
:1009C8000080FFF727FCFFF76BFC00F02DFCFAE72F
:1009D8000749CA6822F4E0620302120403F4E063E0
:1009E800120C134343F0BF6343F40033CB607047EA
:1009F80000ED00E0164B30B5DC68C4F30224C4F106
:100A08000703251D042B28BF0423062D4FF0FF35AF
:100A18008CBF033C002405FA03F321EA0303A54035
:100A280022EA0502A340002843EA0203ACBF00F112
:100A38006040084A4FEA0313B8BF00F00F00DBB26A
:100A4800AABF00F56140135480F8003330BD00BFE1
:100A580000ED00E014ED00E0002807DB044A41093E
:100A6800012300F01F00834042F82130704700BF87
:100A780000E100E000280CDB4309064900F01F00F4
:100A880020330122824041F82320BFF34F8FBFF368
:100A98006F8F704700E100E00138B0F1807F0BD222
:100AA8004FF0E023054A5861F02182F82310002016
:100AB800072298611A6170470120704700ED00E035
:100AC800002808DB4309044900F01F0001226033B5
:100AD800824041F82320704700E100E0704708B5E4
:100AE800FFF7FCFF08BD00002DE9F341044640B3C1
:100AF8000368DE0710D423689D075BD423681907B1
:100B080000F19D8023685A0700F1BD80A369002B7E
:100B180040F0248100202CE08D4B9A6802F00C02F2
:100B2800042A07D09A6802F00C02082A0BD15B68E5
:100B3800590208D5864B1B689A03DCD56368002BDD
:100B4800D9D1012015E06368814DB3F5803F13D1F9
:100B58002B6843F480332B6000F0C2FB7C4E0546C3
:100B680033689B03C7D400F0BBFB401B6428F7D94C
:100B7800032002B0BDE8F081B3F5A02F04D12B68A3
:100B880043F480232B60E3E72A6822F480322A604A
:100B98002A6822F480222A60002BDDD100F0A0FB15
:100BA80006462B689F03A6D500F09AFB801B642895
:100BB800F7D9DDE7664B9A6812F00C0F07D09A68F0
:100BC80002F00C02082A11D15B685D020ED4604A5B
:100BD8001368990702D5E368012BB2D1136821691C
:100BE80023F0F80343EAC103136087E7E268594B2F
:100BF800B2B101221A6000F073FB554D06462B680E
:100C08009B0707D52B68226923F0F80343EAC20340
:100C18002B6073E700F064FB801B0228EFD9A7E77D
:100C28001A6000F05DFB4A4E054633689F077FF562
:100C380065AF00F055FB401B0228F6D998E76269BA
:100C4800444B82B10122C3F8802E00F049FB404E8C
:100C58000546736F9B073FF555AF00F041FB401BFE
:100C68000228F6D984E7C3F8802E00F039FB384E05
:100C78000546736F9F077FF545AF00F031FB401BBA
:100C88000228F6D974E7324B1A6C12F0805228D138
:100C980001921A6C42F080521A641B6C03F0805364
:100CA8000193019B01272C4D2B68D8051BD5A36800
:100CB800274D012B27D12B6F43F001032B6700F041
:100CC8000FFB234E054641F28838336F9A0739D512
:100CD800002F3FF41BAF1E4A136C23F0805313649C
:100CE80014E70027DFE72B6843F480732B6000F0DC
:100CF800F7FA06462B68D905D9D400F0F1FA801B1B
:100D08000228F7D934E7052B04D12B6F43F00403ED
:100D18002B67D0E72A6F22F001022A672A6F22F098
:100D280004022A67002BCAD100F0DAFA41F28838A7
:100D380006462B6F9B07CBD500F0D2FA801B4045A7
:100D4800F7D915E700F0CCFA401B4045BDD90FE7AD
:100D5800003802400000474200700040374DAA6842
:100D680002F00C02082A3ED0022B354B4FF000024D
:100D78001A662BD100F0B4FA06462B6899011FD4E5
:100D8800D4E907321343626A43EA8213E26A43EA08
:100D98000263A26A5208013A43EA02436B60284B95
:100DA800264D01221A6600F09BFA04462B689A0128
:100DB8003FF5B0AE00F094FA001B0228F6D9D7E64A
:100DC80000F08EFA801B0228D7D9D1E600F088FA05
:100DD80004462B689B017FF59DAE00F081FA001B4D
:100DE8000228F6D9C4E6012B3FF4ABAE6B68E26982
:100DF80003F4800191427FF4A4AE216A03F03F021C
:100E08008A427FF49EAE616A47F6C0721A40B2EB1E
:100E1800811F7FF496AEA26A520803F44031013A6A
:100E2800B1EB024F7FF48DAEE26A03F07063B3EB6F
:100E3800026F14BF012000209BE600BF003802406B
:100E480000004742134908B58B6803F00C03042BD4
:100E58001CD0082B1CD14A684B68496813F48003DE
:100E680014BF0D480D48C1F3881118BF002302F0C4
:100E78003F02A1FB0001FFF793F9064B5B68C3F340
:100E8800014301335B00B0FBF3F008BD0248FCE707
:100E98000248FAE70038024000127A000024F40001
:100EA8002DE9F0410D46044610B90120BDE8F08156
:100EB800434B1A6802F007028A4228D321688F0739
:100EC8002DD4C80740D43E4B1A6802F00702AA4244
:100ED80065D8226851076BD4130707D5394A2169A9
:100EE800936823F4604343EAC1039360FFF7AAFFC2
:100EF800344B354A9B68C3F30313D35CD840334B58
:100F08001860334B186800F0A1F90020CEE7CAB288
:100F18001A701B6803F007038B42C6D1CEE7294B32
:100F280011F0040F1EBF9A6842F4E0529A600E074F
:100F380042BF9A6842F460429A609A68A06822F0B8
:100F4800F00202439A60BCE762681E4B012A1CD17A
:100F58001B6813F4003FA8D01A4EB36823F00303AC
:100F68001343B36000F0BCF941F288380746B36810
:100F7800626803F00C03B3EB820FA4D000F0B0F961
:100F8800C01B4045F3D9032090E7911E01291B6837
:100F980002D813F0007FDEE713F0020FDBE7EAB2B6
:100FA8001A701B6803F00703AB427FF47EAF90E72B
:100FB8000449E0688B6823F4E05303438B608BE7B4
:100FC800003C024000380240EC34000800000020D9
:100FD8000800002000F084B9704708B500F074F9E3
:100FE800FFF77DFDFFF7F8FF08BD704784B0114B90
:100FF80000220192196C41F080511964196C01F0BA
:101008008051019101990292596C41F480415964CF
:10101800596C01F480410291029903921A6B42F4CF
:1010280080521A631B6B03F480530393039B04B031
:10103800704700BF00380240DFF834D000F026F8CF
:101048000C480D490D4A002302E0D458C45004331B
:10105800C4188C42F9D30A4A0A4C002301E01360F1
:101068000432A242FBD301F057FDFFF7A7FC7047FB
:1010780000000220000000208000002084350008C5
:101088008000002000080020FEE700001049D1F889
:10109800883043F47003C1F888300E4B1A6842F068
:1010A80001021A6000229A601A6822F0847222F4FF
:1010B80080321A60084A5A601A6822F480221A603C
:1010C8004FF43F02DA604FF000638B60704700BF57
:1010D80000ED00E00038024010300024C3B2332B8A
:1010E8002DE9F0410D462AD8274A52F8233000F45A
:1010F800E0641C43621C44D0244EC4F3031704F07C
:101108000F0856F8273023FA08F3DB0710D52049D3
:10111800204600F0A8F910B1204600F04FF956F823
:101128002730012202FA08F223EA020346F82730A0
:10113800052D15D8DFE805F015211B1D1F2300F02C
:10114800C002C02A1DD1CF2B1BD8124B00F03F0282
:1011580000F4E06453F822200B4B53F82230C8E720
:10116800FEE700212046BDE8F04100F08BB91021D0
:10117800F8E72021F6E70321F4E70121F2E7092146
:10118800F0E7BDE8F08100BF1C3400085C050020D2
:10119800F0310008DC330008C3B2332B14D8164AE8
:1011A80052F8233000F4E0601843C0F30313052B12
:1011B8001DD8124A52F82330114A00F00F0052F895
:1011C8002020B1B19A61704700F0C002C02A0CD14A
:1011D800CF2B0AD80B4B00F03F0200F4E06053F825
:1011E8002220054B53F82230DEE74FF0FF30002372
:1011F800E2E71204E6E700BF1C3400080C000020F8
:10120800FC340008DC330008FFF7E4BE38B50446B8
:1012180048B1FFF7DFFE054600F016F8FFF7DAFEE3
:10122800431BA342F8D338BD08B5044B2BB104487F
:1012380000F0D9F908B1AFF3008008BD0000000044
:101248007405002000F0E8B87047704738B50E4BB9
:101258001A784FF47A73B3FBF2F30C4A0546106818
:10126800B0FBF3F0FFF718FC044658B90F2D09D866
:10127800024629464FF0FF30FFF7BCFB044B2046DF
:101288001D6038BD0120FCE704000020000000209C
:101298000800002008B50B4B1A6842F400721A6067
:1012A8001A6842F480621A601A6842F480721A60FE
:1012B8000320FFF78DFB0020FFF7C8FFFFF7C5FFEE
:1012C800002008BD003C0240034A044B11681B780B
:1012D8000B441360704700BF58050020040000202D
:1012E800014B1868704700BF5805002086B00023DE
:1012F800052853D8DFE800F003111E2B384500936A
:10130800274B28481A6B42F001021A631B6B03F043
:1013180001030093009B06B070470193204B2248BD
:101328001A6B42F002021A631B6B03F0020301936B
:10133800019BF0E702931A4B1C481A6B42F0040217
:101348001A631B6B03F004030293029BE3E7039306
:10135800134B17481A6B42F008021A631B6B03F011
:1013680008030393039BD6E704930D4B11481A6BAC
:1013780042F010021A631B6B03F010030493049BE2
:10138800C9E70593064B0C481A6B42F080021A63B2
:101398001B6B03F080030593059BBCE70020BAE7AD
:1013A80000380240000002400004024000080240E9
:1013B800000C024000100240001C0240F8B514491D
:1013C800144E074600F0F7F800F0F4FA56F820300B
:1013D800044673B9B02000F074FC0D490546384640
:1013E80000F0E9F80146284600F0DEFB56F8243004
:1013F8001D6056F824301C6844B1204600F00EFBEE
:101408002046B021BDE8F84000F05DBCF8BD00BF43
:10141800F03100088C06002008B5FFF7E7FD00F062
:10142800BDFDFFF737FFFFF7E0FDFFF773FABDE8F3
:101438000840014800F04ABC2400002030B591FA69
:10144800A1F391FAA1F1B3FA83F3C4685B00032511
:10145800B1FA81F105FA03F3490024EA03038A404B
:101468001A43C26030BD431C04D00C3151F80C3C07
:101478005A1C01D100207047834201F10C01F5D1BB
:1014880001207047F8B5471C06460D4600D1FEE717
:1014980000F00F02414BC0F3031053F82240FFF74E
:1014A80025FF94FAA4F3B3FA83F3876803225B0059
:1014B80002FA03F394FAA4F2B2FA82F227EA0307D3
:1014C8005200032393403B4305F00701836003293F
:1014D80003D8DFE801F05F032C61FEE7012394FAEB
:1014E800A4F2B2FA82F206685200032707FA02F25F
:1014F80026EA020694FAA4F2B2FA82F25200934063
:10150800013933430129036005D843682A074CBFD2
:101518002343A3434360C5F30112012A02D0022AE0
:1015280018BF00222146BDE8F840FFF787BFC5F382
:1015380006227F2A01D10223D1E7360716D5230ACE
:1015480093FAA3F6B6FA86F6476A93FAA3F3B600B7
:101558004FF00F0CB3FA83F30CFA06F69B0027EA58
:10156800060602FA03F333434362E4E794FAA4F36A
:10157800B3FA83F3066A9B000F2707FA03F326EAF8
:10158800030694FAA4F3B3FA83F39B009A40324318
:101598000262D0E70023A2E70323A0E7FC34000897
:1015A8000B685A1C01D100207047834201D148685A
:1015B80070470C31F4E7431C01D0FFF7F1BF00205E
:1015C80070474B6813B94FF0FF307047834201D121
:1015D800086870470C31F4E708B1FFF7F2BF4FF025
:1015E800FF3070477047B0F80831B0F80421981AF6
:1015F80000F03F007047B0F80831B0F804219BB202
:1016080093421ABFD0F8FC30985C4FF0FF30704717
:1016180090F80631B0F80A01C0B2834227BFC3F17F
:101628003F03C018C01A00F1FF30704707B50368C0
:101638008DF807105B6801220DF10701984703B088
:101648005DF804FBB0F87620816F11FA82F202F09F
:101658003F0210B5A0F87620B0F87610B0F87220E6
:1016680089B28A421AD0B0F87640B0F87610A4B29F
:101678004032121B544289B204F03F0402F03F0288
:10168800C1F1400158BF62428A4228BF0A468267B8
:10169800034900F053FE4FF0FF3010BD0020FCE777
:1016A8004D16000803682DE9F0479B6804468846F4
:1016B8001646984701232374D4F8EC30B4F8069101
:1016C80001338246C9F1400904F1940708D194F81E
:1016D80010312BB1002384F81031384600F04EFE4B
:1016E800236820469B6898470028F9D035464D4521
:1016F80023D8554521D8B4F80621D4F80001531948
:10170800402B10442FD82A46414601F02BFAA9460F
:10171800B4F806311D4405F03F05A4F806513846D3
:1017280000F0FAFD30B91749C4F80C914A4638461A
:1017380000F004FE3046BDE8F087D145236828BF95
:10174800D1464A4641465B6820469847236820466A
:101758009B689847A5EB0905C844B4F806918246EA
:10176800C9F14009C3E7C2F140094A46414601F0C0
:10177800F9F9D4F80001A5EB090208EB090101F019
:10178800F1F9C5E74D160008037C70B504460D460F
:10179800A3B1FFF7A5FD0646B4F80621B4F80A314F
:1017A8009BB29A420AD0002DF8D0FFF799FD801B12
:1017B8008542F1D8B4F80A31A4F8063170BDC0F8F2
:1017C800F030009BC0F8F430914208BF4FF0FF3171
:1017D80000F11103C0E93A21C0F8FC3000F15102D0
:1017E8000023A0F80831C0E94023A0F80A31704767
:1017F800CBB2332B08D80E4A52F8233001F4E061FB
:101808001943C0F8EC10704701F0C002C02A0CD18F
:10181800CF2B0AD8074B01F03F0201F4E06153F8DF
:101828002220034B53F82230EAE74FF0FF31E8E774
:101838001C340008DC330008CBB2332B08D80E4A1E
:1018480052F8233001F4E0611943C0F8E8107047FA
:1018580001F0C002C02A0CD1CF2B0AD8074B01F0E7
:101868003F0201F4E06153F82220034B53F8223081
:10187800EAE74FF0FF31E8E71C340008DC330008E2
:1018880073B54FF47A7316460022C0E901231D4B45
:1018980003604FF0FF33C0F8EC301B4B984204460E
:1018A8000D4615D1CD21FFF7A3FFCE21FFF7C4FFC9
:1018B800012E4FF0FF3308BFC4F8EC3000932046E8
:1018C800D4E93A214FF0FF33FFF779FF02B070BD3A
:1018D8000E4B0F499A6B0F4B53F82200FFF76BFE24
:1018E800854202D1CD212046DDE70B492846FFF786
:1018F80073FE0749C4F8EC002846FFF76DFEC4F8EC
:10190800E800D5E74435000874050020DC330008FA
:101918009C3100081C34000848310008D0F8EC302D
:10192800013310B504460FD1036800215B6A98475C
:1019380094F8103143B9012384F8103104F194006C
:10194800BDE8104000F028BD10BD10B50446FFF7F3
:10195800E5FFB4F80821B4F8043192B29A421FBFE7
:10196800D4F8FC20D05C013303F03F0314BFA4F883
:1019780004314FF0FF3010BD024903480022FFF741
:101988007FBF00BF0044004074050020836810B585
:1019980004462BB10322014698470023C4E90233C9
:1019A80010BD836810B5044613B103220146984759
:1019B800204610BD184A904203461ED0B0F1804F11
:1019C8001DD0A2F57C4290421BD002F58062904265
:1019D80019D002F58062904217D002F59A329042EF
:1019E80015D002F58062904213D002F580624FF65E
:1019F800FF70934208BF07207047002070470120FE
:101A08007047022070470320704704207047052064
:101A180070470620704700BF00000140014670B5BE
:101A2800044651F8100FFFF7C5FF0546084600F0B9
:101A380069FB094A002342F8253004F16006E36097
:101A480004F1B005B54204D0103D2846FFF7A9FFC0
:101A5800F8E7204670BD00BF8C060020F8B50446A4
:101A68000846FFF7A7FF4FF6FF73984200D1FEE73D
:101A7800236903B1FEE71C4D84F82C3004F10C02F5
:101A880045F8202004F110060E22C4E90C33C4E9FD
:101A98000E33C4E91033C4E916232161A36484F822
:101AA8004C3084F84D30E460304600F097FA04F189
:101AB800600504F1B00728461035FFF767FFBD42FF
:101AC800F9D100234FF6FF72C4E90033C4E90632A6
:101AD800C4E90833A36063618023A3623046BDE88C
:101AE800F84000F02DBA00BF8C06002010B5074C56
:101AF800206810B1043000F04BF9A06920B1BDE8AE
:101B08001040043000F044B910BD00BF8C0600201E
:101B1800034B186810B1043000F03AB9704700BFA1
:101B28008C060020034B586810B1043000F030B91F
:101B3800704700BF8C060020034B986810B1043032
:101B480000F026B9704700BF8C060020034BD86808
:101B580010B1043000F01CB9704700BF8C0600209B
:101B6800034B186910B1043000F012B9704700BF78
:101B78008C060020034B586910B1043000F008B9F6
:101B8800704700BF8C060020034BD86910B10430A1
:101B980000F0FEB8704700BF8C0600200022C0E9A4
:101BA8000022C0E902227047F8B504460E4600F14B
:101BB800600500F1B00728461035FFF7EFFFBD427A
:101BC800F9D10023204623613146FFF747FF20461D
:101BD800F8BD826810B50AB901F0F0F9BDE8104007
:101BE800C368184708B500B9FEE700F0F5F90068C2
:101BF800836E13B16030FFF7ECFF08BDFFF7F2BF4B
:101C080010B500B9FEE7037F013B072B10D8DFE8CA
:101C180003F004140F100F0F0F12012400F0DCF969
:101C28000068063400EB041083680BB1FFF7D1FF9E
:101C380010BD0324F2E70424F0E70224EEE7FFF7DF
:101C4800DFBFFFF7DDBF10B50446FFF7DDFAE06040
:101C5800236820465B699847002808DAFFF7D4FA1A
:101C6800E368C01AA3689842F2D34FF0FF3010BD62
:101C7800F8B507460D468E180C46B44201D1601BD4
:101C8800F8BD3846FFF7DFFF031EF8DB04F8013B19
:101C9800F3E72DE9F0410746884616461D4673B11D
:101CA80000243846FFF7CFFF031E05DB434503D06A
:101CB80033550134A542F4D12046BDE8F0811C46D5
:101CC800FAE700F05BBE00F061BE704710B504464D
:101CD80050B1437903F0FF0213B90271FFF7F5FF22
:101CE80001236371002010BD0120FCE770B5044694
:101CF800866DFFF7F5FA94F83530022B054606D0C5
:101D0800802363650120002384F8343070BD236884
:101D18001A6822F016021A605A6922F080025A6183
:101D2800226C0AB9A26C1AB11A6822F008021A6069
:101D38001A6822F001021A602368186810F001007E
:101D480007D1E26D3F239340B360012384F8353017
:101D5800D9E7FFF7C5FA401B0528EDD92023032052
:101D6800636584F83500CEE790F83530022B03D050
:101D780080234365012070470268052380F83530C9
:101D8800136823F001031360002070477047704701
:101D9800036870B5DD681E69B10704460DD5AA074A
:101DA8000BD56FF002021A61012202779B699B072B
:101DB80069D0FFF746FF00232377710710D56A071C
:101DC8000ED523686FF004021A61022222779B69FC
:101DD80013F4407F20465CD0FFF733FF00232377BE
:101DE80033070FD528070DD523686FF008021A614D
:101DF80004222277DB699907204650D0FFF721FF9C
:101E080000232377F20610D5EB060ED523686FF072
:101E180010021A6108222277DB6913F4407F2046FA
:101E280043D0FFF70EFF00232377F00708D5E90713
:101E380006D523686FF001021A612046FFF7DEFE1F
:101E4800320608D52B0606D523686FF080021A6182
:101E5800204600F0A2F8700608D5690606D5236862
:101E68006FF040021A612046FFF791FFB20622D5B3
:101E7800AB0620D523686FF0200220461A61BDE822
:101E8800704000F089B8FFF7DAFE2046FFF77EFFC2
:101E980091E7FFF7D4FE2046FFF778FF9EE7FFF7AC
:101EA800CEFE2046FFF772FFAAE7FFF7C8FE2046DE
:101EB800FFF76CFFB7E770BD1F4A036890420ED06A
:101EC800B0F1804F0BD0A2F57C42904207D002F5CA
:101ED8008062904203D002F58062904208D14A683D
:101EE80023F070031343CA6823F4407313430AE0D2
:101EF800124A9042F7D002F580629042F3D002F580
:101F080080629042EFD04A6923F080031343036054
:101F18008B68C3620B688362074B984204BF0B69E6
:101F28000363012343610369DB0742BF036923F0AD
:101F380001030361704700BF0000014000400140F9
:101F480010B5044630B390F83D3003F0FF021BB9DA
:101F580080F83C2000F0A6F90223206884F83D3080
:101F6800211DFFF7A9FF012384F84630002084F8DB
:101F78003E3084F83F3084F8403084F8413084F8AB
:101F8800423084F8433084F8443084F8453084F88B
:101F98003D3010BD0120FCE7704770470C4BD3F86B
:101FA800FC20D2015EBFD3F8FC2042F08072C3F857
:101FB800FC20084B00225A601A6842F001021A609D
:101FC80000BF00BF00BF5868B0FA80F040097047F2
:101FD80000ED00E0001000E0043870470368414A53
:101FE800934288B00DD1002300933F4B5A6C42F0C6
:101FF80001025A645B6C03F001030093009B08B074
:102008007047B3F1804F0CD100230193364B1A6C03
:1020180042F001021A641B6C03F001030193019B57
:10202800EDE7324A93420CD1002302932E4B1A6CEF
:1020380042F002021A641B6C03F002030293029B33
:10204800DDE72B4A93420CD100230393264B1A6CED
:1020580042F004021A641B6C03F004030393039B0D
:10206800CDE7244A93420CD1002304931E4B1A6CEB
:1020780042F008021A641B6C03F008030493049BE3
:10208800BDE71D4A93420CD100230593164B5A6CA9
:1020980042F480325A645B6C03F480330593059BE9
:1020A800ADE7164A93420CD1002306930E4B5A6CA7
:1020B80042F400325A645B6C03F400330693069BC7
:1020C8009DE70F4A93429AD100230793064B5A6C17
:1020D80042F480225A645B6C03F480230793079BC5
:1020E8008DE700BF000001400038024000040040B6
:1020F80000080040000C004000400140004401403E
:10210800004801400368244A934206D102F59C32F4
:10211800536C23F0010353647047B3F1804F05D12A
:102128001E4A136C23F00103136470471C4A934240
:1021380005D102F50D32136C23F00203F4E7194AB6
:10214800934205D102F50C32136C23F00403EBE73C
:10215800154A934205D102F50B32136C23F008039C
:10216800E2E7124A934205D102F57842536C23F410
:102178008033D0E70E4A934205D102F57442536C7E
:1021880023F40033C7E70B4A9342C5D102F57042E6
:10219800536C23F48023BEE700000140003802405E
:1021A8000004004000080040000C004000400140CE
:1021B8000044014000480140431C21D0184B98427C
:1021C80021D00BD8A3F5006398421ED003F5806395
:1021D80098421CD0B0F1804F1BD0FEE7114B9842BB
:1021E80019D008D8A3F58843984214D003F5804342
:1021F800984212D0F1E70C4B9842EED11A20704762
:102208006FF00D007047322070471D2070471E2068
:1022180070471C207047192070471820704700BF6E
:10222800000C00400044014000480140431C21D0FC
:10223800194B984221D010D8A3F5784398421ED064
:1022480007D8B0F1804F1CD0A3F5806398421AD00C
:10225800FEE7124B984218D0FAE7114B984216D075
:1022680003F58063984214D0A3F500639842EFD138
:10227800182070476FF00D0070471B2070471E2014
:1022880070471C2070471D20704732207047192066
:1022980070471A20704700BF00000140000C004042
:1022A8000044014038B5FFF799FE04460068FFF77F
:1022B80083FFD4E91212FEF79DFB2068FFF77CFF2D
:1022C800FEF7CAFB22681046FFF7B0FF0546104626
:1022D800FFF772FF85420BD02846D4E91212FEF7A9
:1022E80089FB2068FFF7A2FFBDE83840FEF7B4BBC2
:1022F80038BD000008B5074B90F8652053F8220058
:1023080000F00CFB00F02200A0F1220358425841D3
:1023180008BD00BFAC06002008B5074B90F8652043
:1023280053F8220000F0FAFA00F02100A0F121038E
:102338005842584108BD00BFAC06002038B51546C4
:102348000446B8B1016590F96400FEF793FBE36EAB
:10235800B4F8761094F8650013FA81F1064BAAB226
:1023680053F8200000F0BEF894F96400BDE8384046
:10237800FEF772BB38BD00BFAC06002048B1836DC4
:10238800013306D190F86520024B53F8220000F083
:1023980095BA7047AC06002048B1836D013306D169
:1023A80090F86520024B53F8220000F09FBA70475E
:1023B800AC060020836C04381847C36C04381847EF
:1023C80030B5044650F804391D6815F0010585B08C
:1023D80012D0002200921A6800925B680093009B5A
:1023E800FFF788FF40BB012204F16201204605B0D7
:1023F800BDE8304000F0B1BA196811F0020106D00A
:1024080001951A6801925B680193019BE8E71A68D5
:1024180012F0040206D002911A6802925B680293D5
:10242800029BDDE719680907DAD503921A68039257
:102438005B680393039BD3E705B030BD08B525203F
:10244800FEF73EFB024B1868BDE8084000F0C8B82C
:10245800AC06002008B52620FEF732FB034B58686F
:1024680018B1BDE8084000F0BBB808BDAC060020B4
:1024780008B54720FEF724FB024B9868BDE80840E2
:1024880000F0AEB8AC060020026802F10C0353E875
:10249800003F23F490730C3242E8003102680029AF
:1024A800F2D102F1140353E8003F23F0010302F1D3
:1024B800140C4CE800310029F3D1036B012B0BD12C
:1024C80002F10C0353E8003F23F0100302F10C0C57
:1024D8004CE800310029F3D1202380F84230002352
:1024E8000363704790F84130202B10D189B182B135
:1024F800C28401628284016800232122436480F837
:102508004120CA6842F08002CA601846704702201B
:1025180070470120704708B5806B0023C385C384CA
:10252800FFF74EFF08BD704790F84230222B07B5E1
:1025380042D181680268836AB1F5805F3FD1016941
:1025480000293FD15268C2F3080223F8022B8362A4
:10255800C38D013B9BB2C385002B2DD10268D16886
:1025680021F02001D160D16821F48071D1605169D6
:1025780021F001015161202280F842204363026B5F
:10258800012A026828D1036302F10C0353E8003FD3
:1025980023F0100302F10C0C4CE800310029F3D1B0
:1025A8001368DB0605D501911368019353680193FD
:1025B800019B818DFFF7B7FF03B05DF804FB39B9C4
:1025C800016929B95268D2B21A70836A0133BEE729
:1025D800526802F07F02F7E7FFF7ECFEECE7000035
:1025E80003681A6873B51607D9685D6904460AD185
:1025F800960640F18B808D0640F1888002B0BDE8D8
:102608007040FFF791BF15F001054BD012F0010F94
:1026180002F0040363D11BB1636C43F002036364EB
:10262800930749D5636C43F00403636412F0080F01
:1026380003D0636C43F008036364636C002B5FD0C2
:10264800920604D58B0602D52046FFF76DFF266853
:102658007369626C03F0400302F0080253EA020552
:1026680020464FD0FFF710FF73695E0645D52268F4
:1026780002F1140353E8003F23F04003143242E808
:1026880000310029F3D1E06B002836D08A4B03656E
:10269800FFF76AFB002833D0E06B036D02B0BDE89A
:1026A8007040184711F4907F30D012F0010F02F0FB
:1026B800040307D190070DD41007BED501F02003FD
:1026C8002B43B5E7CE050FD4002BF3D19607F3D5EE
:1026D800002DA7D11507B0D511F0200FA8E7C80520
:1026E80002D4002B98D1F1E7636C560743F001033D
:1026F8006364EBD5002DDDD08EE72046FFF760FE42
:1027080002B070BDFFF75CFE6564F9E7206B012835
:1027180040F09580D50640F19280C80640F18F8040
:10272800002201921A6801925A680192019A5A6924
:1027380052064ED5E16B0A68526892B2002ADFD081
:10274800A08D9042DCD9E285CA69B2F5807F36D087
:1027580003F10C0252E8002F22F4807203F10C00FE
:1027680040E800210029F3D103F1140252E8002FB8
:1027780022F0010203F1140040E800210029F3D1FE
:1027880003F1140252E8002F22F0400203F1140072
:1027980040E800210029F3D1202284F84220216357
:1027A80003F10C0252E8002F22F0100203F10C0092
:1027B80040E800210029F3D1E06BFFF797FA0223E4
:1027C8006363E38DA18DC91A89B22046FFF7ABFE7A
:1027D80096E7E28DE08DA18D80B292B200288FD06D
:1027E800891A89B200298BD003F10C0252E8002F14
:1027F80022F4907203F10C0545E800200028F3D17B
:1028080003F1140252E8002F22F0010203F114052B
:1028180045E800200028F3D1202284F842202063D4
:1028280003F10C0252E8002F22F0100203F10C050C
:1028380045E800200028F3D102236363C5E71606A4
:1028480028D50D0626D594F84120212A7FF458AFC3
:10285800A168226AB1F5805F17D12169A9B932F858
:10286800021BC1F3080159602262E28C013A92B25C
:10287800E284002A7FF444AFDA6822F08002DA604A
:10288800DA6842F04002DA603AE7511C21621278B5
:102898005A60EAE750067FF533AF4A067FF530AF56
:1028A800DA6822F04002DA60202384F841302046BA
:1028B800FFF783FD24E700BF1F25000890F840308C
:1028C800012B11D00268242380F84130D36823F00B
:1028D8000C0343F00803D360202380F84130002321
:1028E80080F84030184670470220704790F8403012
:1028F800012B11D00268242380F84130D36823F0DB
:102908000C0343F00403D360202380F841300023F4
:1029180080F84030184670470220704790F84120F0
:1029280090F8420010437047C285002382850269EF
:102938004364222380F84230816203681AB1DA685E
:1029480042F48072DA605A6942F001025A61DA6828
:1029580042F02002DA600020704770B490F84260BC
:10296800202E06D141B13AB10024046370BCFFF7B0
:10297800DBBF022070BC70470120FBE7024B014619
:10298800186800F02DB800BF2C000020024B01464B
:10299800186800F0F5B800BF2C00002070B50F4E85
:1029A8000C463168054611B900F0A6F8306021469A
:1029B800284600F0A1F8431C03D14FF0FF3420460D
:1029C80070BDC41C24F00304A042F8D0211A284684
:1029D80000F092F80130F2D1EFE700BFB80600200E
:1029E8002DE9F041CD1C25F0030508350C2D38BF25
:1029F8000C25002D064601DBA94204D90C233360BF
:102A08000020BDE8F081314F00F062F83B681C46B9
:102A180044BB29463046FFF7C1FF431C044650D14A
:102A28003C682146002941D1002C44D02368304617
:102A380004EB030800F060F880453CD121686D1A6A
:102A480029463046FFF7AAFF013034D023682B44CB
:102A580023603B68002B36D05A68A24229D1002255
:102A68005A600EE02268521B1DD40B2A16D9611930
:102A7800A342256018BF5960636808BF3960625176
:102A88004B60304600F02AF804F10B00231D20F0BB
:102A98000700C21AB5D01B1AA350B2E7A342626856
:102AA800DED13A60EDE723466468B1E70C46496831
:102AB800B8E71346CEE70C233360304600F00EF833
:102AC8009EE70560DDE75B60FFDE00BFBC06002017
:102AD800014800F045B800BFFC070020014800F09D
:102AE80040B800BFFC07002002440346934200D1CF
:102AF800704703F8011BF9E738B5064D0023044673
:102B080008462B6000F0D2F8431C02D12B6803B1B1
:102B1800236038BDF807002070B50D4D0D4C641BBF
:102B2800A4100026A64209D10B4D0C4C00F04AFA1D
:102B3800641BA4100026A64205D170BD55F8043BBD
:102B480098470136EEE755F8043B98470136F2E717
:102B5800743500087435000874350008803500089D
:102B6800704770470A44914200F1FF3300D1704723
:102B780010B511F8014B03F8014F9142F9D110BD7E
:102B880038B50546002941D051F8043C0C1F002BEC
:102B9800B8BFE418FFF79CFF1D4A136833B9636098
:102BA80014602846BDE83840FFF798BFA34208D90B
:102BB800206821188B4201BF19685B6809182160D9
:102BC800EDE71A465B680BB1A342FAD911685018B1
:102BD800A0420BD120680144501883421160E0D113
:102BE80018685B68536008441060DAE702D90C2360
:102BF8002B60D6E7206821188B4204BF19685B68F0
:102C0800636004BF091821605460CAE738BD00BF7B
:102C1800BC06002008B5062000F02CF8012000F0C2
:102C280063F81F2938B505460C4604D916230360F6
:102C38004FF0FF3038BDC26B12B152F821304BB99A
:102C4800284600F031F8224601462846BDE83840BB
:102C580000F018B8012B0AD0591C03D116230360C1
:102C68000120E7E7002142F8241020469847002079
:102C7800E0E70000024B01461868FFF7D2BF00BF2B
:102C88002C00002038B5074D00230446084611469D
:102C98002B6000F02BF8431C02D12B6803B1236092
:102CA80038BD00BFF807002000F028B80A490346DD
:102CB800086810B50344EFF30882934205D9074B1F
:102CC8000C221A604FF0FF3010BD054A054C121B4C
:102CD8009342F4D20B60F7E77C000020F80700204D
:102CE8000000022000040000FEE70000024B16224C
:102CF8001A604FF0FF307047F80700200120704736
:102D08002DE9F047089D0C46002B4ED194468C4582
:102D18008646B2FA82F262D94AB1C2F120039140E2
:102D280020FA03F30CFA02FC194300FA02FE4FEAF8
:102D38001C471FFA8CF6B1FBF7F44FEA1E4307FB5A
:102D4800141143EA014304FB06F199420AD91CEB2A
:102D5800030304F1FF3080F01381994240F210819F
:102D6800023C6344591A1FFA8EF3B1FBF7F007FBD4
:102D7800101143EA014300FB06F69E420AD91CEBF8
:102D8800030300F1FF3180F0FD809E4240F2FA809B
:102D9800634402389B1B40EA044000211DB1D34024
:102DA8000022C5E90032BDE8F0878B4205D90DB194
:102DB800C5E9000100210846F5E7B3FA83F10029C7
:102DC80046D1A34202D39042C0F0F180861A64EB48
:102DD80003030120002DE6D0C5E90063E3E7002ADC
:102DE80040F09180A1EB0C044FEA1C481FFA8CF7C5
:102DF8000121B4FBF8F64FEA1E4308FB164443EAE8
:102E0800044307FB06F0984208D91CEB030306F1BC
:102E1800FF3402D2984200F2CE8026461C1A1FFACE
:102E28008EF3B4FBF8F008FB104443EA044300FBBC
:102E380007F79F4208D91CEB030300F1FF3402D2C5
:102E48009F4200F2B1802046DB1B40EA0640A5E71E
:102E5800C1F120068B4022FA06F71F4320FA06FC30
:102E680004FA01F343EA0C03F44000FA01F8380CC1
:102E78004FEA1349B4FBF0FE1FFA87FC00FB1E441F
:102E880049EA04440EFB0CF9A14502FA01F20AD9F9
:102E98003C190EF1FF3A80F08580A14540F282800E
:102EA800AEF1020E3C44A4EB09041FFA83F9B4FB0B
:102EB800F0F300FB134449EA044403FB0CFCA4456B
:102EC80007D93C1903F1FF3068D2A44566D9023B03
:102ED8003C4443EA0E40A0FB0293A4EB0C049C4242
:102EE800CE469C4652D34FD055B1B8EB0E0364EB97
:102EF8000C0404FA06F6CB40CC401E43C5E9006436
:102F08000021BDE8F087C2F1200320FA03F10CFA92
:102F180002FC24FA03F394400C434FEA1C4800FADD
:102F280002FE1FFA8CF7B3FBF8F008FB1031230CF4
:102F380043EA014300FB07F1994208D91CEB03035C
:102F480000F1FF362CD299422AD9023863445B1A21
:102F5800A4B2B3FBF8F108FB113344EA034401FBC4
:102F680007F3A34208D91CEB040401F1FF3613D27E
:102F7800A34211D902396444E41A41EA004138E70E
:102F88000446EFE6084605E7C845ADD2B9EB020EA0
:102F980063EB070C0138A7E73146EDE7034698E7EE
:102FA8003046D4E7D6467EE7634402384CE7064607
:102FB800234608460EE7023E63442FE708B5FFF7AD
:102FC80029FE0000F8B500BFF8BC08BC9E46704753
:0C2FD800F8B500BFF8BC08BC9E4670476E
:102FE4003D3D3D2053544D33322041726475696E2A
:102FF4006F205254542054657374203D3D3D0D0A96
:1030040000426F6172643A204E55434C454F5F460F
:1030140034313152450D0A00436F72653A205354DE
:103024004D33322041726475696E6F2076322E37CB
:103034002E310D0A005254543A2076382E3632205E
:103044002846756C6C20496D706C656D656E746195
:1030540074696F6E290D0A0030363A34313A3231D0
:1030640000536570202032203230323500427569B9
:103074006C643A2025732025730D0A003D3D3D3DC7
:103084003D3D3D3D3D3D3D3D3D3D3D3D3D3D3D3D6C
:103094003D3D3D3D3D3D3D3D3D3D3D3D0D0A0052E7
:1030A40045414459204634313152452025730D0A97
:1030B400005B253035645D20525454204C6F6F7092
:1030C40020436F756E7465723A2025640D0A0020E2
:1030D400202D2D3E2048657820746573743A203085
:1030E40078253038582C20446563696D616C3A202A
:1030F40025642C20537472696E673A20222573224A
:103104000D0A0052545420576F726B696E67210088
:103114005465726D696E616C00000000000000541B
:1031240054522052454747455300284E554C4C298C
:10313400003031323334353637383941424344452F
:103144004600000003000000004400401207000095
:103154000A00000000100140120700000C000000EB
:103164000014014012080000130000000010014088
:1031740012070000170000000010014012070000B1
:10318400270000000014014012080000FFFFFFFFA9
:1031940000000000000000000200000000440040A5
:1031A400120700000900000000100140120700008F
:1031B4000B00000000140140120800000F00000082
:1031C400001001401207000016000000001001402A
:1031D400120700002600000000140140120800003D
:1031E400FFFFFFFF000000000000000000000000DF
:1031F400000000401281000000010000000C0040AB
:1032040012820000010000000000004012010100D1
:1032140001010000000C0040120201000200000045
:10322400000000401281010002010000000C004077
:1032340012820100020200000040014012830000DB
:10324400030000000000004012010200030100001E
:10325400000C004012020200030200000040014082
:10326400120301000500000000000040128100006C
:103274000600000000040040128200000700000065
:10328400000001401281100007010000000400400A
:103294001202010008000000000001401281000039
:1032A4000900000000000140120101000A000000B2
:1032B40000000140128101000B00000000000140E9
:1032C400120102000F000000000000401281000003
:1032D4001000000000000140120111001001000064
:1032E40000040040128201001100000000000140AF
:1032F40012811100110100000004004012020200BA
:10330400130000000000004012010100140000003E
:103314000004004012820000150000000004004078
:103324001202010016000000000800401282000092
:1033340017000000000800401202010018000000FD
:1033440000080040128201001801000000440140FE
:10335400128300001900000000080040120202005D
:103364001901000000480140128300001A00000007
:1033740000000040128101001D0000000000014017
:10338400128110001E000000000001401201110013
:103394001F000000000001401281110026000000FF
:1033A40000040040128200002700000000040040D6
:1033B40012020100280000000004004012820100F3
:1033C400290000000004004012020200FFFFFFFF7A
:1033D40000000000000000002E0000002F0000008C
:1033E4003000000031000000320000003300000013
:1033F4000B0000000C0000001C0000001D00000079
:1034040023000000290000002D000000000000003F
:10341400010000000D000000030000000200000095
:103424000A00000013000000150000001400000052
:103434001A00000008000000090000002700000036
:103444001600000007000000060000000500000050
:1034540019000000180000002A0000002C000000E1
:10346400FFFFFFFF0D0000000E0000000F00000032
:10347400170000002D0000002E0000002F000000A7
:103484005000000051000000220000002300000052
:103494002B0000003200000029000000280000007A
:1034A40026000000250000000C0000000B000000B6
:1034B4001C0000001B0000001200000011000000AE
:1034C4001F0000001E0000001D000000240000007A
:1034D40000000000010000000400000010000000D3
:1034E4002100000020000000000000000000000097
:1034F400010203040607080901000000020000009D
:10350400040000000800000010000000200000007B
:1035140040000000800000000001000000020000E4
:10352400000400000008000000100000002000005B
:1035340000400000008000000000000000000000C7
:1035440035160008AD16000819160008ED15000818
:10355400EF15000853190008FF150008791C00082E
:083564009B1C000891170008F0
:08356C009CF7FF7F0100000045
:0C357400B50900080102000881190008D8
:04358000DD01000861
:103584000024F400010000001000000000000240CC
:103594000004024000080240000C024000100240F7
:1035A400001C0240003002400000000030000020F7
:1035B40000000000C006002028070020900700201B
:1035C40000000000000000000000000000000000F7
:1035D40000000000000000000000000000000000E7
:1035E40000000000000000000000000000000000D7
:1035F400000000000000000000000000000800209F
:04000005080010419E
:00000001FF
